{
  "contractName": "NFTokenReceiverTestMock",
  "abi": [
    {
      "constant": false,
      "inputs": [
        {
          "name": "_from",
          "type": "address"
        },
        {
          "name": "_tokenId",
          "type": "uint256"
        },
        {
          "name": "_data",
          "type": "bytes"
        }
      ],
      "name": "onERC721Received",
      "outputs": [
        {
          "name": "",
          "type": "bytes4"
        }
      ],
      "payable": false,
      "stateMutability": "nonpayable",
      "type": "function"
    }
  ],
  "bytecode": "0x608060405234801561001057600080fd5b50610159806100206000396000f300608060405260043610610041576000357c0100000000000000000000000000000000000000000000000000000000900463ffffffff168063f0b9e5ba14610046575b600080fd5b34801561005257600080fd5b506100a9600480360381019080803573ffffffffffffffffffffffffffffffffffffffff169060200190929190803590602001909291908035906020019082018035906020019190919293919293905050506100fd565b60405180827bffffffffffffffffffffffffffffffffffffffffffffffffffffffff19167bffffffffffffffffffffffffffffffffffffffffffffffffffffffff1916815260200191505060405180910390f35b600063f0b9e5ba7c01000000000000000000000000000000000000000000000000000000000290509493505050505600a165627a7a7230582060e1cff51c2c4369350c6ca599f8ed126f1d3e388fe431e0c49adeff480eabce0029",
  "source": "pragma solidity ^0.4.23;\n\ncontract NFTokenReceiverTestMock {\n\n  function onERC721Received(\n    address _from,\n    uint256 _tokenId,\n    bytes _data\n  )\n    external\n    returns(bytes4)\n  {\n    _from;\n    _tokenId;\n    _data;\n    return 0xf0b9e5ba;\n  }\n\n}\n",
  "sourcePath": "/Users/primary/Projects/eip721-vyper/contracts/mocks/NFTokenReceiverTestMock.sol",
  "compiler": {
    "name": "solc",
    "version": "0.4.24+commit.e67f0147.Emscripten.clang"
  },
  "schemaVersion": "2.0.0",
  "updatedAt": "2018-06-19T13:23:03.021Z"
}